:100000000C9434000C943E000C943E000C943E0082
:100010000C943E000C943E000C943E000C943E0068
:100020000C943E000C943E000C943E000C943E0058
:100030000C943E000C943E000C943E000C943E0048
:100040000C943E000C943E000C943E000C943E0038
:100050000C943E000C943E000C943E000C943E0028
:100060000C943E000C943E0011241FBECFEFD8E04C
:10007000DEBFCDBF0E9440000C945D000C940000D8
:100080008AB18C638AB98BB1837C8BB92FEF83EDF6
:1000900090E3215080409040E1F700C000008BB118
:1000A000837C8BB95A9A2FEF83ED90E321508040E7
:0E00B0009040E1F700C00000E6CFF894FFCFCB
:00000001FF
