:100000000C945D000C9485000C9485000C94850084
:100010000C9485000C9485000C9485000C9485004C
:100020000C9485000C9485000C9485000C9485003C
:100030000C9485000C9485000C9485000C9485002C
:100040000C94B3010C9485000C9423020C94FD01D4
:100050000C9485000C9485000C9485000C9485000C
:100060000C9485000C94850000000008000201003B
:100070000003040700000000000000000000000072
:10008000250028002B0000000000240027002A0083
:10009000040404040404040402020202020203032E
:1000A0000303030301020408102040800102040836
:1000B0001020010204081020530411241FBECFEFAA
:1000C000D8E0DEBFCDBF11E0A0E0B1E0E4E5F9E0AB
:1000D00002C005900D92AA32B107D9F721E0AAE239
:1000E000B1E001C01D92A03DB207E1F710E0CDE5FF
:1000F000D0E004C02197FE010E94A204CC35D107B4
:10010000C9F70E943F030C94A8040C94000090E0EF
:10011000FC01EC55FF4F249180579F4FFC018491C7
:10012000882399F090E0880F991FFC01EA57FF4F50
:10013000A591B491FC01E458FF4F859194918FB73C
:10014000F894EC91E22BEC938FBF0895AF92BF929D
:10015000CF92DF92EF92FF920F931F93CF93DF9393
:100160006C017B018B01040F151FEB015E01AE18C2
:10017000BF08C017D10759F06991D601ED91FC91E4
:100180000190F081E02DC6010995892B79F7C50111
:10019000DF91CF911F910F91FF90EF90DF90CF9063
:1001A000BF90AF900895FC01538D448D252F30E012
:1001B000842F90E0821B930B541710F0CF96089574
:1001C00001970895FC01918D828D981761F0A28DA1
:1001D000AE0FBF2FB11D5D968C91928D9F5F9F7367
:1001E000928F90E008958FEF9FEF0895FC01918D1D
:1001F000828D981731F0828DE80FF11D858D90E08A
:1002000008958FEF9FEF0895FC01918D228D892F26
:1002100090E0805C9F4F821B91098F73992708950E
:1002200083E391E00E94040121E0892B09F420E09E
:10023000822F089580E090E0892B29F00E94100120
:1002400081110C9400000895FC01A48DA80FB92F12
:10025000B11DA35ABF4F2C91848D90E001968F73EE
:100260009927848FA689B7892C93A089B1898C910D
:10027000837080648C93938D848D981306C002885C
:10028000F389E02D80818F7D80830895EF92FF9226
:100290000F931F93CF93DF93EC0181E0888F9B8DA9
:1002A0008C8D98131AC0E889F989808185FF15C063
:1002B0009FB7F894EE89FF896083E889F989808186
:1002C0008370806480839FBF81E090E0DF91CF9155
:1002D0001F910F91FF90EF900895F62E0B8D10E077
:1002E0000F5F1F4F0F731127E02E8C8D8E110CC0E6
:1002F0000FB607FCFACFE889F989808185FFF5CF31
:10030000CE010E942401F1CFEB8DEC0FFD2FF11DEA
:10031000E35AFF4FF0829FB7F8940B8FEA89FB896D
:1003200080818062CFCFCF93DF93EC01888D8823CB
:10033000B9F0AA89BB89E889F9898C9185FD03C048
:10034000808186FD0DC00FB607FCF7CF8C9185FF2D
:10035000F2CF808185FFEDCFCE010E942401E9CF4D
:10036000DF91CF9108951F920F920FB60F92112433
:100370002F933F938F939F93AF93BF9380912B01C4
:1003800090912C01A0912D01B0912E0130912A0164
:1003900023E0230F2D3758F50196A11DB11D2093A1
:1003A0002A0180932B0190932C01A0932D01B093EF
:1003B0002E0180912F0190913001A0913101B091D7
:1003C00032010196A11DB11D80932F019093300140
:1003D000A0933101B0933201BF91AF919F918F9162
:1003E0003F912F910F900FBE0F901F90189526E808
:1003F000230F0296A11DB11DD2CF1F920F920FB6EF
:100400000F9211242F933F934F935F936F937F939A
:100410008F939F93AF93BF93EF93FF9383E391E009
:100420000E942401FF91EF91BF91AF919F918F9115
:100430007F916F915F914F913F912F910F900FBEE0
:100440000F901F9018951F920F920FB60F921124C4
:100450002F938F939F93EF93FF93E0914301F0913C
:1004600044018081E0914901F0914A0182FD1BC065
:10047000908180914C018F5F8F7320914D01821785
:1004800041F0E0914C01F0E0ED5CFE4F958F8093E0
:100490004C01FF91EF919F918F912F910F900FBE83
:1004A0000F901F9018958081F4CF90E0FC01E859DF
:1004B000FF4F2491FC01EC55FF4F3491FC01E057B4
:1004C000FF4FE491EE23C9F0222339F0233001F1EC
:1004D000A8F4213019F1223029F1F0E0EE0FFF1FCE
:1004E000E458FF4FA591B4918FB7F894EC91611146
:1004F00026C030953E233C938FBF08952730A9F046
:100500002830C9F0243049F7809180008F7D03C0E6
:10051000809180008F7780938000DFCF84B58F77C4
:1005200084BDDBCF84B58F7DFBCF8091B0008F770A
:100530008093B000D2CF8091B0008F7DF9CF3E2B59
:10054000DACF3FB7F89480912F0190913001A091BC
:100550003101B091320126B5A89B05C02F3F19F09B
:100560000196A11DB11D3FBFBA2FA92F982F882733
:10057000BC01CD01620F711D811D911D42E0660F0E
:10058000771F881F991F4A95D1F70895FC010190A4
:100590000020E9F73197AF01481B590BBC0183E3F9
:1005A00091E00C94A6008F929F92AF92BF920F930E
:1005B0001F93CF93DF93CDB7DEB7A1970FB6F89413
:1005C000DEBF0FBECDBF19A2423008F44AE08E0153
:1005D0000F5D1F4F842E912CB12CA12CA5019401ED
:1005E0000E948004E62FB901CA01EA30F4F4E05D0C
:1005F000D801EE938D01232B242B252B79F790E046
:1006000080E0109719F0CD010E94C602A1960FB6A6
:10061000F894DEBF0FBECDBFDF91CF911F910F9138
:10062000BF90AF909F908F900895E95CE1CFCF92FB
:10063000DF92EF92FF92CF93DF936B017C016DE22B
:1006400083E391E00E944601EC0166277727CB0106
:100650006C197D098E099F094AE00E94D3028C0F14
:100660009D1FDF91CF91FF90EF90DF90CF90089585
:10067000BC01990F880B990B4AE00C94D302789433
:1006800084B5826084BD84B5816084BD85B5826097
:1006900085BD85B5816085BD80916E008160809348
:1006A0006E001092810080918100826080938100B1
:1006B00080918100816080938100809180008160C1
:1006C000809380008091B10084608093B10080911C
:1006D000B00081608093B00080917A008460809344
:1006E0007A0080917A00826080937A0080917A000B
:1006F000816080937A0080917A00806880937A008C
:100700001092C100E0914301F091440182E08083A6
:10071000E0913F01F09140011082E0914101F091A0
:1007200042018FEC808310924B01E0914701F091E0
:10073000480186E08083E0914501F0914601808187
:1007400080618083E0914501F0914601808188605D
:100750008083E0914501F09146018081806880832B
:10076000E0914501F091460180818F7D808382E098
:100770000E94870083E00E94870084E00E94870037
:1007800085E00E948700D0E0C0E010E000E0F12C9E
:10079000E12CD12CC12C209729F0BB24B394011556
:1007A000110539F42C2D2170B22EE114F10409F455
:1007B000B12C6B2D82E00E94550260E083E00E9424
:1007C000550260E084E00E94550260E085E00E94EE
:1007D000550282E191E00E94C602CE010E943803D8
:1007E00085E191E00E94C602C8010E94380389E1B8
:1007F00091E00E94C602C7010E9438038DE191E09A
:100800000E94C602C6010E94380381E291E00E9464
:10081000C6026B2D70E090E080E04AE00E94D302B7
:1008200087E291E00E94C6020E94A1022B013C01D6
:1008300088EE882E83E0982EA12CB12C0E94A10274
:100840006419750986099709683E73408105910509
:10085000A8F381E0881A9108A108B10828EE420E99
:1008600023E0521E611C711C81149104A104B10487
:1008700029F7CA94CD2899F4EA94EF2861F401305D
:10088000110531F4219709F4FFCFC1E0D0E07DCF0D
:1008900001E010E07CCFEE24E394F12C7ACFCC245D
:1008A000C394D12C78CFE3E3F1E01382128288EE77
:1008B00093E0A0E0B0E084839583A683B78384E0CF
:1008C00091E09183808385EC90E09587848784EC28
:1008D00090E09787868780EC90E0918B808B81EC0D
:1008E00090E0938B828B82EC90E0958B848B86ECEE
:1008F00090E0978B868B118E128E138E148E089536
:10090000A1E21A2EAA1BBB1BFD010DC0AA1FBB1F13
:10091000EE1FFF1FA217B307E407F50720F0A21B85
:10092000B30BE40BF50B661F771F881F991F1A94F2
:1009300069F760957095809590959B01AC01BD011C
:10094000CF010895EE0FFF1F0590F491E02D09945B
:04095000F894FFCF49
:10095400000000004601A600D30093010401E20058
:10096400F600413D0020423D0020433D0020443D2F
:0A09740000207C20593D000D0A0010
:00000001FF
